:020000040807EB
:10000000380C00204D010708470407083F04070883
:1000100043040708C10107089D0907080000000004
:10002000000000000000000000000000AD0607080E
:10003000C501070800000000CD040708C107070834
:1000400067010708670107086701070867010708D4
:1000500067010708670107086701070867010708C4
:1000600067010708670107086701070867010708B4
:1000700067010708670107086701070867010708A4
:100080006701070867010708670107086701070894
:100090006701070867010708670107086701070884
:1000A0006701070867010708670107086701070874
:1000B0006701070867010708670107086701070864
:1000C0006701070867010708670107086701070854
:1000D000670107082508070867010708670107087F
:1000E0006701070867010708670107086701070834
:1000F0006701070867010708670107086701070824
:100100006701070867010708670107086701070813
:100110006701070867010708670107086701070803
:1001200067010708670107086701070867010708F3
:10013000DFF80CD000F032F800480047750C0708D3
:10014000380C002080F3088870470000064880477C
:1001500006480047FEE7FEE7FEE7FEE7FEE7FEE7AC
:10016000FEE7FEE7FEE7FEE7C507070831010708DF
:1001700030B50B46014600202022012409E021FA77
:1001800002F59D4205D303FA02F5491B04FA02F574
:100190002844151EA2F10102F1DC30BD064C074DCA
:1001A00006E0E06840F0010394E807009847103447
:1001B000AC42F6D3FFF7C0FF400E0708600E0708F9
:1001C00000BFFEE77047000030B5044604254FF439
:1001D000302000F083F80546042D17D10C48006943
:1001E00040F002000A49086108464461006940F095
:1001F000400008614FF4302000F070F805460448D4
:10020000006941F6FD71084001490861284630BD8A
:100210000020024004200B49C96801F0010109B126
:1002200001200EE00749C96801F0040109B102206C
:1002300007E00449C96801F0100109B1032000E09A
:1002400004207047002002400348006940F080000D
:1002500001490861704700000020024070B5044663
:100260000D460426F00200F039F80646042E11D19E
:100270000948006940F00100074908612580F00243
:1002800000F02CF806460448006941F6FE7108406B
:1002900001490861304670BD0020024030B5034678
:1002A0000C461546002207E0184600F008F824F82E
:1002B00012009B1C501C82B2AA42F5DB30BD0146E5
:1002C00008887047024803494860034848607047FF
:1002D0002301674500200240AB89EFCD00B50246FF
:1002E0000423FFF797FF034603E0FFF793FF03465E
:1002F000521E012B01D1002AF7D102B9052318465D
:1003000000BD2DE9F04105460E461746002407E0E2
:1003100036F814102846FFF7A1FFAD1C601C84B20C
:10032000BC42F5DBBDE8F0812DE9F0410246002535
:100330000026002000230024002791F803C00CF0C1
:100340000F0591F803C00CF0100CBCF1000F03D0A6
:1003500091F802C04CEA050591F800C0BCF1000F0D
:1003600031D0146800202BE04FF0010C0CFA00F3A0
:10037000B1F800C00CEA03069E4220D183004FF082
:100380000F0C0CFA03F7BC4305FA03FC4CEA040417
:1003900091F803C0BCF1280F06D14FF0010C0CFA04
:1003A00000FCC2F814C00AE091F803C0BCF1480F89
:1003B00005D14FF0010C0CFA00FCC2F810C0401C33
:1003C0000828D1D31460B1F800C0BCF1FF0F34DDB0
:1003D000546800202EE000F1080C4FF0010808FAE4
:1003E0000CF3B1F800C00CEA03069E4221D1830051
:1003F0004FF00F0C0CFA03F7BC4305FA03FC4CEA70
:10040000040491F803C0BCF1280F05D100F1080CD9
:1004100008FA0CF8C2F8148091F803C0BCF1480F38
:1004200007D100F1080C4FF0010808FA0CF8C2F8E7
:100430001080401C0828CED35460BDE8F08100BF76
:10044000FEE700BFFEE7704770B5002100230F22D2
:10045000C47804B3154C246804F4E064C4F5E06483
:10046000210AC1F10403CA40447804FA03F18478F4
:100470001440214309010E4C0678A155047804F07C
:100480001F050124AC4005786D11AD0005F1E02594
:10049000C5F8004109E0047804F01F050124AC40D0
:1004A000044D0678761145F8264070BD0CED00E04D
:1004B00000E400E080E100E002490143024A1160EB
:1004C000704700000000FA050CED00E070470000E6
:1004D00029B1064A92690243044B9A6104E0034A37
:1004E00092698243014B9A617047000000100240FC
:1004F00030B500210022002400232D4D6D6805F049
:100500000C0121B1042905D0082923D105E0294D8A
:10051000056022E0274D05601FE0254D6D6805F45C
:100520007012234D6D6805F48034022505EB92426C
:100530001CB9214D554305600BE01D4D6D6805F458
:1005400000351DB11C4D5543056002E0194D554362
:10055000056002E0174D056000BF00BF144D6D68D7
:1005600005F0F0010909154D6B5C0568DD4045603B
:100570000F4D6D6805F4E061090A104D6B5C45682C
:10058000DD4085600A4D6D6805F46051C90A0B4D68
:100590006B5C4568DD40C560054D6D6805F4404104
:1005A000890B074D6B5CC568B5FBF3F5056130BD84
:1005B0000010024000127A0000093D0014000020E3
:1005C000240000202DE9F05F80468A461746B8F1E6
:1005D000006F02D33348804501D3BDE8F09FFFF799
:1005E00071FEA8F1006B4FEADB25CBF34909C9F591
:1005F0008064A74200DC3C464DE04FF0006101EB17
:10060000C5204A142849FFF749FE00260BE009EBF4
:100610000600254931F810004FF6FF71884200D0DE
:1006200003E0701C86B2A642F1DB00BFA6421BDAD3
:100630004FF0006101EBC520FFF7C6FD002608E082
:100640003AF8160006EB0901174A22F81100701C4F
:1006500086B2A642F4DB4FF0006101EBC5204A14DC
:100660001149FFF74EFE04E0224651464046FFF78F
:1006700048FEA74200D10FE06D1C4FF000090AEBC5
:10068000440AA044381B87B2B7F5806F02DD4FF4EF
:10069000806400E03C46B0E700BFFFF7D5FD00BF37
:1006A0009BE700000000080838000020704710B5E4
:1006B00000F002F810BD00000CB500200190009081
:1006C0003348006840F480303149086000BF30484A
:1006D000006800F4003000900198401C01900098E0
:1006E00018B90198B0F5A06FF1D12948006800F45D
:1006F000003010B10120009001E00020009000982F
:10070000012843D12348006840F0100021490860C7
:100710000846006820F0030008600846006840F0C2
:10072000020008601A484068194948600846406855
:1007300048600846406840F4806048600846406869
:1007400020F47C1048600846406840F4E810486097
:100750000846006840F08070086000BF0C480068E0
:1007600000F000700028F9D00948406820F003002C
:10077000074948600846406840F00200486000BFF2
:100780000348406800F00C000828F9D10CBD0000B7
:100790000010024000200240042808D14FF0E02160
:1007A000096941F004014FF0E022116107E04FF0C8
:1007B000E021096921F004014FF0E0221161704746
:1007C0007047000010B51248006840F00100104961
:1007D0000860084640680F4908400D4948600846CF
:1007E00000680D4908400A4908600846006820F47E
:1007F000802008600846406820F4FE0048604FF4FE
:100800001F008860FFF753FF04480549086010BDCA
:10081000001002400000FFF8FFFFF6FE000007088E
:1008200008ED00E00B49098801F0200189B1094970
:10083000091D0988C8B208490988B1F55C4F08DA72
:100840000649054A1288885403490988491C024A06
:1008500011807047003801402E0000200010002059
:1008600021B1828942F40052828104E082894DF6EE
:10087000FF731A4082817047F0B5034600240026BA
:100880000025002040F66A17B94200D100BF184683
:10089000C1F3421401F01F06012707FA06F5012CE7
:1008A00001D10C3004E0022C01D1103000E01430F2
:1008B0001AB107682F43076002E00768AF4307607B
:1008C000F0BD00002DE9F04786B005460E46002435
:1008D000A24600BFA1460027B08900B100BF2F4645
:1008E0002C8A4CF6FF700440F08804432C82AC89BB
:1008F0004EF6F3100440B0883189084371890843EB
:100900000443AC81AC8A4FF6FF400440B0890443F5
:10091000AC8201A8FFF7ECFD1F48874202D1DDF849
:1009200010A001E0DDF80CA0A88900F4004040B15F
:100930000AEBCA0000EB0A1031684900B0FBF1F87D
:1009400007E00AEBCA0000EB0A1031688900B0FB2F
:10095000F1F86420B8FBF0F004012009642101FBE8
:100960001089A88900F4004040B1322000EBC90092
:10097000B0FBF1F000F00700044308E0322000EB88
:1009800009106421B0FBF1F000F00F0004432C814A
:1009900006B0BDE8F08700000038014000BFFEE768
:1009A0000FB4054B10B503A9044A029800F018F8DB
:1009B00010BC5DF814FB0000C50B070828000020E0
:1009C00002E008C8121F08C1002AFAD17047704718
:1009D000002001E001C1121F002AFBD17047000076
:1009E0002DE9FF4F89B09B460446002506E02528E7
:1009F0000BD05A460B999047641C6D1C2078002838
:100A0000F5D10DB02846BDE8F08F0027B846012289
:100A1000474900E0074314F8013F203B02FA03F086
:100A20000842F7D120782E2819D114F8010F47F089
:100A300004072A280ED06FF02F022078A0F1300191
:100A400009290CD808EB880102EB410100EB0108F1
:100A5000641CF2E70A98641C50F8048B0A90207812
:100A60000028CED0642808D0692806D075281ED06A
:100A70005A460B9990476D1C58E00A994FF00A09A5
:100A800001C90A91002802DA40422D2102E039050D
:100A900004D52B218DF82010012103E0F90704D0A3
:100AA0002021F7E78A4608AE0DE00021FAE70A990F
:100AB0004FF00A0901C90A91F7E74946FFF758FBC9
:100AC000303106F8011D0028F7D1ADEB060000F12A
:100AD0002009780701D44FF00108C84502DDA8EBD2
:100AE000090000E000208046002706E008A85A46DA
:100AF000C05D0B9990476D1C7F1C5745F6DB04E0E9
:100B000030205A460B9990476D1CB8F10001A8F1AE
:100B10000108F5DC05E016F8010B5A460B999047E1
:100B20006D1CB9F10001A9F10109F4DC641C65E751
:100B30000928010010B56FF00400FFF72DFE0A48E8
:100B400000680A49B0FBF1F00949087008460078CE
:100B500000EB4001C1EBC0104FF6FF7101EAC0008D
:100B60000449088010BD00000000002000127A0037
:100B700030000020320000200146114A12884A430A
:100B80004FF0E0235A6100229A611A46126942F03E
:100B900001021A6100BF4FF0E022106900F001026B
:100BA0001AB100F48032002AF5D04FF0E022126929
:100BB00022F001024FF0E0231A6100229A6170478F
:100BC0003200002000BF054A128802F04002002ACD
:100BD000F9D0C2B2014B1B1D1A807047003801408A
:100BE00010B50446206807490840B0F1005F08D1FD
:100BF0006068054908602068FFF7A4FA02480068A9
:100C0000804710BD0000FE2F340000202DE9F05F6A
:100C100006460F4690460024B3463D46A1461CE0DA
:100C200068784FEA002A287850441FFA80FAAD1CF1
:100C30002046611C8CB20E4921F810A0B4F5806FDB
:100C400007D100244FF480625846FFF7BBFC0BF538
:100C5000006B09F102001FFA80F9C145E0D324B10D
:100C6000224603495846FFF7ADFCBDE8F09F00005F
:100C700000EC0020002500244FF4A060FFF71CFCCE
:100C80004FF4E13000F08CF8FFF754FF20A0FFF79D
:100C900087FE3BE02448008878B1234800888542DD
:100CA00009D121480488002500201F4908801FA081
:100CB000FFF776FE01E01C48058800BF0A20FFF719
:100CC0005BFF002C1FD01DA0FFF76AFE214620A06D
:100CD000FFF766FE2348406800F07F40B0F1006FE8
:100CE0000DD1224620494FF00060FFF78FFF1FA073
:100CF000FFF756FE4FF00060FFF772FF06E021A0FD
:100D0000FFF74EFE02E022A0FFF74AFEC2E7000016
:100D1000626F6F746C6F616465722072756E6E695C
:100D20006E670D0A000000002E00002073756363DB
:100D300065737366756C0D0A000000006669726D5C
:100D40007761726520626567696E0D0A00000000B8
:100D50006170706C656E6774682069732025640D1E
:100D60000A00000000100020001000206669726D6B
:100D700077617265207375636365737366756C0D57
:100D80000A0000006E6F20666C6173680D0A000037
:100D90006E6F206669726D776172650D0A000000E2
:100DA00010B586B00446012144F20400FFF790FB21
:100DB0004FF40070ADF8140003208DF816001820D1
:100DC0008DF8170005A91C48FFF7AEFA4FF48060B4
:100DD000ADF8140004208DF8170005A91648FFF798
:100DE000A3FA25208DF8000003208DF801008DF86E
:100DF000020001208DF803006846FFF725FB0194EF
:100E00000020ADF80800ADF80A00ADF80C00ADF810
:100E100010000C20ADF80E0001A90848FFF752FDA4
:100E2000012240F225510548FFF726FD0121034824
:100E3000FFF716FD06B010BD000801400038014064
:100E4000600E07080000002038000000C0090708F5
:100E5000980E070838000020C8F30000D0090708E2
:100E600000A24A0400000000000000000102030488
:100E70000607080900000000010203040102030440
:100E80000607080902040608000000000000000030
:080E900000000000000000005A
:0400000508070131B6
:00000001FF
