:020000040800F2
:10000000380400204D01000831030008D502000823
:100010002D030008B1010008A1070008000000003E
:10002000000000000000000000000000B104000813
:10003000B501000800000000B9030008C50500086C
:1000400067010008670100086701000867010008F0
:1000500067010008670100086701000867010008E0
:1000600067010008670100086701000867010008D0
:1000700067010008670100086701000867010008C0
:1000800067010008670100086701000867010008B0
:1000900067010008670100086701000867010008A0
:1000A0006701000867010008670100086701000890
:1000B0006701000867010008670100086701000880
:1000C0006701000867010008670100086701000870
:1000D0006701000829060008670100086701000899
:1000E0006701000867010008670100086701000850
:1000F0006701000867010008670100086701000840
:10010000670100086701000867010008670100082F
:10011000670100086701000867010008670100081F
:10012000670100086701000867010008670100080F
:10013000DFF80CD000F02AF80048004791090008C9
:100140003804002080F30888704700000648804784
:1001500006480047FEE7FEE7FEE7FEE7FEE7FEE7AC
:10016000FEE7FEE7FEE7FEE7C905000831010008EB
:1001700010B5002200E0521C835C8C5CA34201D1CC
:10018000002BF8D1D8B2E1B2401A10BD064C074D91
:1001900006E0E06840F0010394E807009847103457
:1001A000AC42F6D3FFF7C8FFB80A0008D80A000827
:1001B00000BFFEE770472DE9F0410246002500260A
:1001C000002000230024002791F803C00CF00F0545
:1001D00091F803C00CF0100CBCF1000F03D091F8A3
:1001E00002C04CEA050591F800C0BCF1000F31D007
:1001F000146800202BE04FF0010C0CFA00F3B1F86A
:1002000000C00CEA03069E4220D183004FF00F0C81
:100210000CFA03F7BC4305FA03FC4CEA040491F81A
:1002200003C0BCF1280F06D14FF0010C0CFA00FC02
:10023000C2F814C00AE091F803C0BCF1480F05D120
:100240004FF0010C0CFA00FCC2F810C0401C08284A
:10025000D1D31460B1F800C0BCF1FF0F34DD546895
:1002600000202EE000F1080C4FF0010808FA0CF312
:10027000B1F800C00CEA03069E4221D183004FF082
:100280000F0C0CFA03F7BC4305FA03FC4CEA040418
:1002900091F803C0BCF1280F05D100F1080C08FA51
:1002A0000CF8C2F8148091F803C0BCF1480F07D1D4
:1002B00000F1080C4FF0010808FA0CF8C2F81080A1
:1002C000401C0828CED35460BDE8F08141617047DE
:1002D0000161704700BFFEE708B50121082000F06A
:1002E0006DF82020ADF8000010208DF803000320E9
:1002F0008DF8020069460C48FFF75DFF20210A488F
:10030000FFF7E6FF0120ADF8000010208DF8030094
:1003100003208DF8020069460348FFF74CFF0121D6
:100320000148FFF7D5FF08BD000C014000BFFEE704
:100330007047000070B5002100230F22C47804B379
:10034000154C246804F4E064C4F5E064210AC1F1AA
:100350000403CA40447804FA03F18478144021432A
:1003600009010E4C0678A155047804F01F050124FC
:10037000AC4005786D11AD0005F1E025C5F80041F0
:1003800009E0047804F01F050124AC40044D067810
:10039000761145F8264070BD0CED00E000E400E069
:1003A00080E100E002490143024A11607047000009
:1003B0000000FA050CED00E07047000029B1064A84
:1003C00092690243044B9A6104E0034A92698243B2
:1003D000014B9A61704700000010024030B50021C7
:1003E0000022002400232D4D6D6805F00C0121B181
:1003F000042905D0082923D105E0294D056022E014
:10040000274D05601FE0254D6D6805F47012234DE2
:100410006D6805F48034022505EB92421CB9214D2C
:10042000554305600BE01D4D6D6805F400351DB1A9
:100430001C4D5543056002E0194D5543056002E02F
:10044000174D056000BF00BF144D6D6805F0F00149
:100450000909154D6B5C0568DD4045600F4D6D6801
:1004600005F4E061090A104D6B5C4568DD4085606C
:100470000A4D6D6805F46051C90A0B4D6B5C456807
:10048000DD40C560054D6D6805F44041890B074DA1
:100490006B5CC568B5FBF3F5056130BD001002402B
:1004A00000127A0000093D00140000202400002002
:1004B000704710B500F002F810BD00000CB5002028
:1004C000019000903348006840F480303149086062
:1004D00000BF3048006800F4003000900198401CD4
:1004E0000190009818B90198B0F5A06FF1D1294892
:1004F000006800F4003010B10120009001E00020FD
:1005000000900098012843D12348006840F0100073
:10051000214908600846006820F00300086008468A
:10052000006840F0020008601A48406819494860B5
:100530000846406848600846406840F4806048606B
:100540000846406820F47C1048600846406840F443
:10055000E81048600846006840F08070086000BFFE
:100560000C48006800F000700028F9D00948406885
:1005700020F00300074948600846406840F0020048
:10058000486000BF0348406800F00C000828F9D11B
:100590000CBD00000010024000200240042808D1D9
:1005A0004FF0E021096941F004014FF0E0221161B0
:1005B00007E04FF0E021096921F004014FF0E0224B
:1005C000116170477047000010B51348006840F093
:1005D00001001149086008464068104908400E496A
:1005E0004860084600680E4908400B490860084604
:1005F000006820F4802008600846406820F4FE006F
:1006000048604FF41F008860FFF753FF4FF0006011
:100610000449086010BD0000001002400000FFF80F
:10062000FFFFF6FE08ED00E00B49098801F020010C
:1006300089B10949091D0988C8B208490988B1F575
:100640005C4F08DA0649054A12888854034909882C
:10065000491C024A118070470038014032000020D6
:100660000010002021B1828942F40052828104E00E
:1006700082894DF6FF731A4082817047F0B50346B8
:10068000002400260025002040F66A17B94200D158
:1006900000BF1846C1F3421401F01F06012707FAF4
:1006A00006F5012C01D10C3004E0022C01D11030F0
:1006B00000E014301AB107682F43076002E00768B2
:1006C000AF430760F0BD00002DE9F04786B0054656
:1006D0000E460024A24600BFA1460027B08900B103
:1006E00000BF2F462C8A4CF6FF700440F08804436C
:1006F0002C82AC894EF6F3100440B088318908434F
:10070000718908430443AC81AC8A4FF6FF40044032
:10071000B0890443AC8201A8FFF760FE1F488742FE
:1007200002D1DDF810A001E0DDF80CA0A88900F4EA
:10073000004040B10AEBCA0000EB0A1031684900E2
:10074000B0FBF1F807E00AEBCA0000EB0A103168D1
:100750008900B0FBF1F86420B8FBF0F00401200937
:10076000642101FB1089A88900F4004040B13220C7
:1007700000EBC900B0FBF1F000F00700044308E013
:10078000322000EB09106421B0FBF1F000F00F0003
:1007900004432C8106B0BDE8F0870000003801401A
:1007A00000BFFEE70FB4054B10B503A9044A029839
:1007B00000F017F810BC5DF814FB000049090008B0
:1007C0002C00002002E008C8121F08C1002AFAD13C
:1007D00070477047002001E001C1121F002AFBD1C1
:1007E00070472DE9F84F99469246884605460027FE
:1007F00006E025280AD051464A4690476D1C7F1CCA
:1008000028780028F5D13846BDE8F88F002315F880
:10081000011F18462E2915D115F8011F04232A2976
:100820000DD06FF02F022978A1F13004092C09D8DE
:1008300000EB800002EB400008446D1CF3E758F821
:10084000040B6D1C2A78002ADDD0632A07D0732A96
:100850000FD0104651464A4690477F1C2AE018F8B0
:10086000042B8DF8002000218DF801106E46012127
:1008700003E058F8046B4FF0FF315A074FF00004C3
:1008800001D409E0641C84420BDA8C42FADB325D4D
:10089000002AF7D105E0641C8C42FCDB305D0028A7
:1008A000F9D1274404E016F8010B51464A46904717
:1008B000641EF8D26D1CA3E710B56FF00400FFF7BB
:1008C0006DFE0A4800680A49B0FBF1F0094908705A
:1008D0000846007800EB4001C1EBC0104FF6FF71F5
:1008E00001EAC0000449088010BD0000000000209B
:1008F00000127A0034000020360000200146114A20
:1009000012884A434FF0E0235A6100229A611A4646
:10091000126942F001021A6100BF4FF0E022106933
:1009200000F001021AB100F48032002AF5D04FF035
:10093000E022126922F001024FF0E0231A61002246
:100940009A6170473600002000BF054A128802F005
:100950004002002AF9D0C2B2014B1B1D1A80704719
:100960000038014010B50446206807490840B0F13E
:10097000005F08D16068054908602068FFF7E2FB66
:1009800002480068804710BD0000FE2F28000020AC
:10099000FFF7A2FC4FF4A060FFF704FD4FF4E13035
:1009A00000F03AF8FFF788FF0DA0FFF7FBFE16E016
:1009B0000F48008802280BDD0E490FA0FFF7F2FE5A
:1009C00012A10C48FFF7D4FB10B11148FFF7CAFF82
:1009D00020211048FFF77AFC6420FFF78FFFE7E73C
:1009E00064656D6F2072756E6E696E670D0A00002A
:1009F000320000200010002072656376207374724C
:100A00002069732025730D0A000000004F4B000081
:100A100000000708000C014010B586B00446012113
:100A200044F20400FFF7CAFC4FF40070ADF8140064
:100A300003208DF8160018208DF8170005A91C4812
:100A4000FFF7B9FB4FF48060ADF8140004208DF877
:100A5000170005A91648FFF7AEFB25208DF800000A
:100A600003208DF801008DF8020001208DF80300AD
:100A70006846FFF75FFC01940020ADF80800ADF870
:100A80000A00ADF80C00ADF810000C20ADF80E0017
:100A900001A90848FFF718FE012240F22551054838
:100AA000FFF7ECFD01210348FFF7DCFD06B010BDA8
:100AB0000008014000380140D80A0008000000206A
:100AC00038000000C4070008100B000838000020A0
:100AD000C8EB0000D407000800A24A040000000090
:100AE00000000000010203040607080900000000DE
:100AF00001020304010203040607080902040608B0
:100B000000000000000000000000000000000000E5
:0400000508000131BD
:00000001FF
